{
  "_format": "hh-sol-artifact-1",
  "contractName": "MyNFT",
  "sourceName": "contracts/MyNFT.sol",
  "abi": [
    {
      "inputs": [],
      "stateMutability": "nonpayable",
      "type": "constructor"
    },
    {
      "anonymous": false,
      "inputs": [
        {
          "indexed": true,
          "internalType": "address",
          "name": "owner",
          "type": "address"
        },
        {
          "indexed": true,
          "internalType": "address",
          "name": "approved",
          "type": "address"
        },
        {
          "indexed": true,
          "internalType": "uint256",
          "name": "tokenId",
          "type": "uint256"
        }
      ],
      "name": "Approval",
      "type": "event"
    },
    {
      "anonymous": false,
      "inputs": [
        {
          "indexed": true,
          "internalType": "address",
          "name": "owner",
          "type": "address"
        },
        {
          "indexed": true,
          "internalType": "address",
          "name": "operator",
          "type": "address"
        },
        {
          "indexed": false,
          "internalType": "bool",
          "name": "approved",
          "type": "bool"
        }
      ],
      "name": "ApprovalForAll",
      "type": "event"
    },
    {
      "anonymous": false,
      "inputs": [
        {
          "indexed": true,
          "internalType": "uint256",
          "name": "tokenId",
          "type": "uint256"
        },
        {
          "indexed": false,
          "internalType": "address",
          "name": "Company_owner",
          "type": "address"
        },
        {
          "indexed": false,
          "internalType": "address",
          "name": "candidate",
          "type": "address"
        }
      ],
      "name": "TokenListedSuccess",
      "type": "event"
    },
    {
      "anonymous": false,
      "inputs": [
        {
          "indexed": true,
          "internalType": "address",
          "name": "from",
          "type": "address"
        },
        {
          "indexed": true,
          "internalType": "address",
          "name": "to",
          "type": "address"
        },
        {
          "indexed": true,
          "internalType": "uint256",
          "name": "tokenId",
          "type": "uint256"
        }
      ],
      "name": "Transfer",
      "type": "event"
    },
    {
      "inputs": [
        {
          "internalType": "address",
          "name": "to",
          "type": "address"
        },
        {
          "internalType": "uint256",
          "name": "tokenId",
          "type": "uint256"
        }
      ],
      "name": "approve",
      "outputs": [],
      "stateMutability": "nonpayable",
      "type": "function"
    },
    {
      "inputs": [
        {
          "internalType": "address",
          "name": "owner",
          "type": "address"
        }
      ],
      "name": "balanceOf",
      "outputs": [
        {
          "internalType": "uint256",
          "name": "",
          "type": "uint256"
        }
      ],
      "stateMutability": "view",
      "type": "function"
    },
    {
      "inputs": [
        {
          "internalType": "uint256",
          "name": "tokenId",
          "type": "uint256"
        }
      ],
      "name": "getApproved",
      "outputs": [
        {
          "internalType": "address",
          "name": "",
          "type": "address"
        }
      ],
      "stateMutability": "view",
      "type": "function"
    },
    {
      "inputs": [],
      "name": "getMyNFTs",
      "outputs": [
        {
          "components": [
            {
              "internalType": "uint256",
              "name": "tokenId",
              "type": "uint256"
            },
            {
              "internalType": "address payable",
              "name": "Company_owner",
              "type": "address"
            },
            {
              "internalType": "address payable",
              "name": "candidate",
              "type": "address"
            }
          ],
          "internalType": "struct MyNFT.ListedToken[]",
          "name": "",
          "type": "tuple[]"
        }
      ],
      "stateMutability": "view",
      "type": "function"
    },
    {
      "inputs": [],
      "name": "getNFTCompany",
      "outputs": [
        {
          "components": [
            {
              "internalType": "uint256",
              "name": "tokenId",
              "type": "uint256"
            },
            {
              "internalType": "address payable",
              "name": "Company_owner",
              "type": "address"
            },
            {
              "internalType": "address payable",
              "name": "candidate",
              "type": "address"
            }
          ],
          "internalType": "struct MyNFT.ListedToken[]",
          "name": "",
          "type": "tuple[]"
        }
      ],
      "stateMutability": "view",
      "type": "function"
    },
    {
      "inputs": [
        {
          "internalType": "address",
          "name": "owner",
          "type": "address"
        },
        {
          "internalType": "address",
          "name": "operator",
          "type": "address"
        }
      ],
      "name": "isApprovedForAll",
      "outputs": [
        {
          "internalType": "bool",
          "name": "",
          "type": "bool"
        }
      ],
      "stateMutability": "view",
      "type": "function"
    },
    {
      "inputs": [
        {
          "internalType": "address",
          "name": "recipient",
          "type": "address"
        },
        {
          "internalType": "string",
          "name": "tokenURI",
          "type": "string"
        }
      ],
      "name": "mintNFT",
      "outputs": [
        {
          "internalType": "uint256",
          "name": "",
          "type": "uint256"
        }
      ],
      "stateMutability": "nonpayable",
      "type": "function"
    },
    {
      "inputs": [],
      "name": "name",
      "outputs": [
        {
          "internalType": "string",
          "name": "",
          "type": "string"
        }
      ],
      "stateMutability": "view",
      "type": "function"
    },
    {
      "inputs": [
        {
          "internalType": "uint256",
          "name": "tokenId",
          "type": "uint256"
        }
      ],
      "name": "ownerOf",
      "outputs": [
        {
          "internalType": "address",
          "name": "",
          "type": "address"
        }
      ],
      "stateMutability": "view",
      "type": "function"
    },
    {
      "inputs": [
        {
          "internalType": "address",
          "name": "from",
          "type": "address"
        },
        {
          "internalType": "address",
          "name": "to",
          "type": "address"
        },
        {
          "internalType": "uint256",
          "name": "tokenId",
          "type": "uint256"
        }
      ],
      "name": "safeTransferFrom",
      "outputs": [],
      "stateMutability": "nonpayable",
      "type": "function"
    },
    {
      "inputs": [
        {
          "internalType": "address",
          "name": "from",
          "type": "address"
        },
        {
          "internalType": "address",
          "name": "to",
          "type": "address"
        },
        {
          "internalType": "uint256",
          "name": "tokenId",
          "type": "uint256"
        },
        {
          "internalType": "bytes",
          "name": "data",
          "type": "bytes"
        }
      ],
      "name": "safeTransferFrom",
      "outputs": [],
      "stateMutability": "nonpayable",
      "type": "function"
    },
    {
      "inputs": [
        {
          "internalType": "address",
          "name": "operator",
          "type": "address"
        },
        {
          "internalType": "bool",
          "name": "approved",
          "type": "bool"
        }
      ],
      "name": "setApprovalForAll",
      "outputs": [],
      "stateMutability": "nonpayable",
      "type": "function"
    },
    {
      "inputs": [
        {
          "internalType": "bytes4",
          "name": "interfaceId",
          "type": "bytes4"
        }
      ],
      "name": "supportsInterface",
      "outputs": [
        {
          "internalType": "bool",
          "name": "",
          "type": "bool"
        }
      ],
      "stateMutability": "view",
      "type": "function"
    },
    {
      "inputs": [],
      "name": "symbol",
      "outputs": [
        {
          "internalType": "string",
          "name": "",
          "type": "string"
        }
      ],
      "stateMutability": "view",
      "type": "function"
    },
    {
      "inputs": [
        {
          "internalType": "uint256",
          "name": "tokenId",
          "type": "uint256"
        }
      ],
      "name": "tokenURI",
      "outputs": [
        {
          "internalType": "string",
          "name": "",
          "type": "string"
        }
      ],
      "stateMutability": "view",
      "type": "function"
    },
    {
      "inputs": [
        {
          "internalType": "address",
          "name": "from",
          "type": "address"
        },
        {
          "internalType": "address",
          "name": "to",
          "type": "address"
        },
        {
          "internalType": "uint256",
          "name": "tokenId",
          "type": "uint256"
        }
      ],
      "name": "transferFrom",
      "outputs": [],
      "stateMutability": "nonpayable",
      "type": "function"
    }
  ],
  "bytecode": "0x60806040523480156200001157600080fd5b506040518060400160405280601081526020017f496e7465726e65745f436974697a656e000000000000000000000000000000008152506040518060400160405280600281526020017f494300000000000000000000000000000000000000000000000000000000000081525081600090816200008f919062000324565b508060019081620000a1919062000324565b5050506200040b565b600081519050919050565b7f4e487b7100000000000000000000000000000000000000000000000000000000600052604160045260246000fd5b7f4e487b7100000000000000000000000000000000000000000000000000000000600052602260045260246000fd5b600060028204905060018216806200012c57607f821691505b602082108103620001425762000141620000e4565b5b50919050565b60008190508160005260206000209050919050565b60006020601f8301049050919050565b600082821b905092915050565b600060088302620001ac7fffffffffffffffffffffffffffffffffffffffffffffffffffffffffffffffff826200016d565b620001b886836200016d565b95508019841693508086168417925050509392505050565b6000819050919050565b6000819050919050565b600062000205620001ff620001f984620001d0565b620001da565b620001d0565b9050919050565b6000819050919050565b6200022183620001e4565b6200023962000230826200020c565b8484546200017a565b825550505050565b600090565b6200025062000241565b6200025d81848462000216565b505050565b5b8181101562000285576200027960008262000246565b60018101905062000263565b5050565b601f821115620002d4576200029e8162000148565b620002a9846200015d565b81016020851015620002b9578190505b620002d1620002c8856200015d565b83018262000262565b50505b505050565b600082821c905092915050565b6000620002f960001984600802620002d9565b1980831691505092915050565b6000620003148383620002e6565b9150826002028217905092915050565b6200032f82620000aa565b67ffffffffffffffff8111156200034b576200034a620000b5565b5b62000357825462000113565b6200036482828562000289565b600060209050601f8311600181146200039c576000841562000387578287015190505b62000393858262000306565b86555062000403565b601f198416620003ac8662000148565b60005b82811015620003d657848901518255600182019150602085019450602081019050620003af565b86831015620003f65784890151620003f2601f891682620002e6565b8355505b6001600288020188555050505b505050505050565b613557806200041b6000396000f3fe608060405234801561001057600080fd5b50600436106101005760003560e01c80636352211e11610097578063b88d4fde11610066578063b88d4fde146102ad578063c87b56dd146102c9578063e985e9c5146102f9578063eacabe141461032957610100565b80636352211e1461021357806370a082311461024357806395d89b4114610273578063a22cb4651461029157610100565b806323b872dd116100d357806323b872dd1461019f578063427bfa88146101bb57806342842e0e146101d9578063629cb2e4146101f557610100565b806301ffc9a71461010557806306fdde0314610135578063081812fc14610153578063095ea7b314610183575b600080fd5b61011f600480360381019061011a91906121cc565b610359565b60405161012c9190612214565b60405180910390f35b61013d61043b565b60405161014a91906122bf565b60405180910390f35b61016d60048036038101906101689190612317565b6104cd565b60405161017a9190612385565b60405180910390f35b61019d600480360381019061019891906123cc565b610513565b005b6101b960048036038101906101b4919061240c565b61062a565b005b6101c361068a565b6040516101d09190612580565b60405180910390f35b6101f360048036038101906101ee919061240c565b610951565b005b6101fd610971565b60405161020a9190612580565b60405180910390f35b61022d60048036038101906102289190612317565b610c38565b60405161023a9190612385565b60405180910390f35b61025d600480360381019061025891906125a2565b610cbe565b60405161026a91906125de565b60405180910390f35b61027b610d75565b60405161028891906122bf565b60405180910390f35b6102ab60048036038101906102a69190612625565b610e07565b005b6102c760048036038101906102c2919061279a565b610e1d565b005b6102e360048036038101906102de9190612317565b610e7f565b6040516102f091906122bf565b60405180910390f35b610313600480360381019061030e919061281d565b610f91565b6040516103209190612214565b60405180910390f35b610343600480360381019061033e91906128fe565b611025565b60405161035091906125de565b60405180910390f35b60007f80ac58cd000000000000000000000000000000000000000000000000000000007bffffffffffffffffffffffffffffffffffffffffffffffffffffffff1916827bffffffffffffffffffffffffffffffffffffffffffffffffffffffff1916148061042457507f5b5e139f000000000000000000000000000000000000000000000000000000007bffffffffffffffffffffffffffffffffffffffffffffffffffffffff1916827bffffffffffffffffffffffffffffffffffffffffffffffffffffffff1916145b80610434575061043382611067565b5b9050919050565b60606000805461044a90612989565b80601f016020809104026020016040519081016040528092919081815260200182805461047690612989565b80156104c35780601f10610498576101008083540402835291602001916104c3565b820191906000526020600020905b8154815290600101906020018083116104a657829003601f168201915b5050505050905090565b60006104d8826110d1565b6004600083815260200190815260200160002060009054906101000a900473ffffffffffffffffffffffffffffffffffffffff169050919050565b600061051e82610c38565b90508073ffffffffffffffffffffffffffffffffffffffff168373ffffffffffffffffffffffffffffffffffffffff160361058e576040517f08c379a000000000000000000000000000000000000000000000000000000000815260040161058590612a2c565b60405180910390fd5b8073ffffffffffffffffffffffffffffffffffffffff166105ad61111c565b73ffffffffffffffffffffffffffffffffffffffff1614806105dc57506105db816105d661111c565b610f91565b5b61061b576040517f08c379a000000000000000000000000000000000000000000000000000000000815260040161061290612abe565b60405180910390fd5b6106258383611124565b505050565b61063b61063561111c565b826111dd565b61067a576040517f08c379a000000000000000000000000000000000000000000000000000000000815260040161067190612b50565b60405180910390fd5b610685838383611272565b505050565b60606000610698600761156b565b905060008060005b83811015610740573373ffffffffffffffffffffffffffffffffffffffff16600860006001846106d09190612b9f565b815260200190815260200160002060010160009054906101000a900473ffffffffffffffffffffffffffffffffffffffff1673ffffffffffffffffffffffffffffffffffffffff160361072d5760018361072a9190612b9f565b92505b808061073890612bd3565b9150506106a0565b5060008267ffffffffffffffff81111561075d5761075c61266f565b5b60405190808252806020026020018201604052801561079657816020015b610783612113565b81526020019060019003908161077b5790505b50905060005b84811015610946573373ffffffffffffffffffffffffffffffffffffffff16600860006001846107cc9190612b9f565b815260200190815260200160002060010160009054906101000a900473ffffffffffffffffffffffffffffffffffffffff1673ffffffffffffffffffffffffffffffffffffffff16036109335760006001826108289190612b9f565b9050600060086000838152602001908152602001600020905080604051806060016040529081600082015481526020016001820160009054906101000a900473ffffffffffffffffffffffffffffffffffffffff1673ffffffffffffffffffffffffffffffffffffffff1673ffffffffffffffffffffffffffffffffffffffff1681526020016002820160009054906101000a900473ffffffffffffffffffffffffffffffffffffffff1673ffffffffffffffffffffffffffffffffffffffff1673ffffffffffffffffffffffffffffffffffffffff168152505084868151811061091657610915612c1b565b5b602002602001018190525060018561092e9190612b9f565b945050505b808061093e90612bd3565b91505061079c565b508094505050505090565b61096c83838360405180602001604052806000815250610e1d565b505050565b6060600061097f600761156b565b905060008060005b83811015610a27573373ffffffffffffffffffffffffffffffffffffffff16600860006001846109b79190612b9f565b815260200190815260200160002060020160009054906101000a900473ffffffffffffffffffffffffffffffffffffffff1673ffffffffffffffffffffffffffffffffffffffff1603610a1457600183610a119190612b9f565b92505b8080610a1f90612bd3565b915050610987565b5060008267ffffffffffffffff811115610a4457610a4361266f565b5b604051908082528060200260200182016040528015610a7d57816020015b610a6a612113565b815260200190600190039081610a625790505b50905060005b84811015610c2d573373ffffffffffffffffffffffffffffffffffffffff1660086000600184610ab39190612b9f565b815260200190815260200160002060020160009054906101000a900473ffffffffffffffffffffffffffffffffffffffff1673ffffffffffffffffffffffffffffffffffffffff1603610c1a576000600182610b0f9190612b9f565b9050600060086000838152602001908152602001600020905080604051806060016040529081600082015481526020016001820160009054906101000a900473ffffffffffffffffffffffffffffffffffffffff1673ffffffffffffffffffffffffffffffffffffffff1673ffffffffffffffffffffffffffffffffffffffff1681526020016002820160009054906101000a900473ffffffffffffffffffffffffffffffffffffffff1673ffffffffffffffffffffffffffffffffffffffff1673ffffffffffffffffffffffffffffffffffffffff1681525050848681518110610bfd57610bfc612c1b565b5b6020026020010181905250600185610c159190612b9f565b945050505b8080610c2590612bd3565b915050610a83565b508094505050505090565b600080610c4483611579565b9050600073ffffffffffffffffffffffffffffffffffffffff168173ffffffffffffffffffffffffffffffffffffffff1603610cb5576040517f08c379a0000000000000000000000000000000000000000000000000000000008152600401610cac90612c96565b60405180910390fd5b80915050919050565b60008073ffffffffffffffffffffffffffffffffffffffff168273ffffffffffffffffffffffffffffffffffffffff1603610d2e576040517f08c379a0000000000000000000000000000000000000000000000000000000008152600401610d2590612d28565b60405180910390fd5b600360008373ffffffffffffffffffffffffffffffffffffffff1673ffffffffffffffffffffffffffffffffffffffff168152602001908152602001600020549050919050565b606060018054610d8490612989565b80601f0160208091040260200160405190810160405280929190818152602001828054610db090612989565b8015610dfd5780601f10610dd257610100808354040283529160200191610dfd565b820191906000526020600020905b815481529060010190602001808311610de057829003601f168201915b5050505050905090565b610e19610e1261111c565b83836115b6565b5050565b610e2e610e2861111c565b836111dd565b610e6d576040517f08c379a0000000000000000000000000000000000000000000000000000000008152600401610e6490612b50565b60405180910390fd5b610e7984848484611722565b50505050565b6060610e8a826110d1565b6000600660008481526020019081526020016000208054610eaa90612989565b80601f0160208091040260200160405190810160405280929190818152602001828054610ed690612989565b8015610f235780601f10610ef857610100808354040283529160200191610f23565b820191906000526020600020905b815481529060010190602001808311610f0657829003601f168201915b505050505090506000610f3461177e565b90506000815103610f49578192505050610f8c565b600082511115610f7e578082604051602001610f66929190612d84565b60405160208183030381529060405292505050610f8c565b610f8784611795565b925050505b919050565b6000600560008473ffffffffffffffffffffffffffffffffffffffff1673ffffffffffffffffffffffffffffffffffffffff16815260200190815260200160002060008373ffffffffffffffffffffffffffffffffffffffff1673ffffffffffffffffffffffffffffffffffffffff16815260200190815260200160002060009054906101000a900460ff16905092915050565b600061103160076117fd565b600061103d600761156b565b90506110493382611813565b6110538184611a30565b61105d8185611a9d565b8091505092915050565b60007f01ffc9a7000000000000000000000000000000000000000000000000000000007bffffffffffffffffffffffffffffffffffffffffffffffffffffffff1916827bffffffffffffffffffffffffffffffffffffffffffffffffffffffff1916149050919050565b6110da81611bdb565b611119576040517f08c379a000000000000000000000000000000000000000000000000000000000815260040161111090612c96565b60405180910390fd5b50565b600033905090565b816004600083815260200190815260200160002060006101000a81548173ffffffffffffffffffffffffffffffffffffffff021916908373ffffffffffffffffffffffffffffffffffffffff160217905550808273ffffffffffffffffffffffffffffffffffffffff1661119783610c38565b73ffffffffffffffffffffffffffffffffffffffff167f8c5be1e5ebec7d5bd14f71427d1e84f3dd0314c0f7b2291e5b200ac8c7c3b92560405160405180910390a45050565b6000806111e983610c38565b90508073ffffffffffffffffffffffffffffffffffffffff168473ffffffffffffffffffffffffffffffffffffffff16148061122b575061122a8185610f91565b5b8061126957508373ffffffffffffffffffffffffffffffffffffffff16611251846104cd565b73ffffffffffffffffffffffffffffffffffffffff16145b91505092915050565b8273ffffffffffffffffffffffffffffffffffffffff1661129282610c38565b73ffffffffffffffffffffffffffffffffffffffff16146112e8576040517f08c379a00000000000000000000000000000000000000000000000000000000081526004016112df90612e1a565b60405180910390fd5b600073ffffffffffffffffffffffffffffffffffffffff168273ffffffffffffffffffffffffffffffffffffffff1603611357576040517f08c379a000000000000000000000000000000000000000000000000000000000815260040161134e90612eac565b60405180910390fd5b6113648383836001611c1c565b8273ffffffffffffffffffffffffffffffffffffffff1661138482610c38565b73ffffffffffffffffffffffffffffffffffffffff16146113da576040517f08c379a00000000000000000000000000000000000000000000000000000000081526004016113d190612e1a565b60405180910390fd5b6004600082815260200190815260200160002060006101000a81549073ffffffffffffffffffffffffffffffffffffffff02191690556001600360008573ffffffffffffffffffffffffffffffffffffffff1673ffffffffffffffffffffffffffffffffffffffff168152602001908152602001600020600082825403925050819055506001600360008473ffffffffffffffffffffffffffffffffffffffff1673ffffffffffffffffffffffffffffffffffffffff16815260200190815260200160002060008282540192505081905550816002600083815260200190815260200160002060006101000a81548173ffffffffffffffffffffffffffffffffffffffff021916908373ffffffffffffffffffffffffffffffffffffffff160217905550808273ffffffffffffffffffffffffffffffffffffffff168473ffffffffffffffffffffffffffffffffffffffff167fddf252ad1be2c89b69c2b068fc378daa952ba7f163c4a11628f55a4df523b3ef60405160405180910390a46115668383836001611d42565b505050565b600081600001549050919050565b60006002600083815260200190815260200160002060009054906101000a900473ffffffffffffffffffffffffffffffffffffffff169050919050565b8173ffffffffffffffffffffffffffffffffffffffff168373ffffffffffffffffffffffffffffffffffffffff1603611624576040517f08c379a000000000000000000000000000000000000000000000000000000000815260040161161b90612f18565b60405180910390fd5b80600560008573ffffffffffffffffffffffffffffffffffffffff1673ffffffffffffffffffffffffffffffffffffffff16815260200190815260200160002060008473ffffffffffffffffffffffffffffffffffffffff1673ffffffffffffffffffffffffffffffffffffffff16815260200190815260200160002060006101000a81548160ff0219169083151502179055508173ffffffffffffffffffffffffffffffffffffffff168373ffffffffffffffffffffffffffffffffffffffff167f17307eab39ab6107e8899845ad3d59bd9653f200f220920489ca2b5937696c31836040516117159190612214565b60405180910390a3505050565b61172d848484611272565b61173984848484611d48565b611778576040517f08c379a000000000000000000000000000000000000000000000000000000000815260040161176f90612faa565b60405180910390fd5b50505050565b606060405180602001604052806000815250905090565b60606117a0826110d1565b60006117aa61177e565b905060008151116117ca57604051806020016040528060008152506117f5565b806117d484611ecf565b6040516020016117e5929190612d84565b6040516020818303038152906040525b915050919050565b6001816000016000828254019250508190555050565b600073ffffffffffffffffffffffffffffffffffffffff168273ffffffffffffffffffffffffffffffffffffffff1603611882576040517f08c379a000000000000000000000000000000000000000000000000000000000815260040161187990613016565b60405180910390fd5b61188b81611bdb565b156118cb576040517f08c379a00000000000000000000000000000000000000000000000000000000081526004016118c290613082565b60405180910390fd5b6118d9600083836001611c1c565b6118e281611bdb565b15611922576040517f08c379a000000000000000000000000000000000000000000000000000000000815260040161191990613082565b60405180910390fd5b6001600360008473ffffffffffffffffffffffffffffffffffffffff1673ffffffffffffffffffffffffffffffffffffffff16815260200190815260200160002060008282540192505081905550816002600083815260200190815260200160002060006101000a81548173ffffffffffffffffffffffffffffffffffffffff021916908373ffffffffffffffffffffffffffffffffffffffff160217905550808273ffffffffffffffffffffffffffffffffffffffff16600073ffffffffffffffffffffffffffffffffffffffff167fddf252ad1be2c89b69c2b068fc378daa952ba7f163c4a11628f55a4df523b3ef60405160405180910390a4611a2c600083836001611d42565b5050565b611a3982611bdb565b611a78576040517f08c379a0000000000000000000000000000000000000000000000000000000008152600401611a6f90613114565b60405180910390fd5b80600660008481526020019081526020016000209081611a9891906132e0565b505050565b60405180606001604052808381526020013373ffffffffffffffffffffffffffffffffffffffff1681526020018273ffffffffffffffffffffffffffffffffffffffff16815250600860008481526020019081526020016000206000820151816000015560208201518160010160006101000a81548173ffffffffffffffffffffffffffffffffffffffff021916908373ffffffffffffffffffffffffffffffffffffffff16021790555060408201518160020160006101000a81548173ffffffffffffffffffffffffffffffffffffffff021916908373ffffffffffffffffffffffffffffffffffffffff160217905550905050611b9d338284611272565b817f887abab4d4a5e6e0d2a48282eb29d8453b0c5159ac0e7f7adfc664d873c341ed3383604051611bcf9291906133b2565b60405180910390a25050565b60008073ffffffffffffffffffffffffffffffffffffffff16611bfd83611579565b73ffffffffffffffffffffffffffffffffffffffff1614159050919050565b6001811115611d3c57600073ffffffffffffffffffffffffffffffffffffffff168473ffffffffffffffffffffffffffffffffffffffff1614611cb05780600360008673ffffffffffffffffffffffffffffffffffffffff1673ffffffffffffffffffffffffffffffffffffffff1681526020019081526020016000206000828254611ca891906133db565b925050819055505b600073ffffffffffffffffffffffffffffffffffffffff168373ffffffffffffffffffffffffffffffffffffffff1614611d3b5780600360008573ffffffffffffffffffffffffffffffffffffffff1673ffffffffffffffffffffffffffffffffffffffff1681526020019081526020016000206000828254611d339190612b9f565b925050819055505b5b50505050565b50505050565b6000611d698473ffffffffffffffffffffffffffffffffffffffff16611f9d565b15611ec2578373ffffffffffffffffffffffffffffffffffffffff1663150b7a02611d9261111c565b8786866040518563ffffffff1660e01b8152600401611db49493929190613464565b6020604051808303816000875af1925050508015611df057506040513d601f19601f82011682018060405250810190611ded91906134c5565b60015b611e72573d8060008114611e20576040519150601f19603f3d011682016040523d82523d6000602084013e611e25565b606091505b506000815103611e6a576040517f08c379a0000000000000000000000000000000000000000000000000000000008152600401611e6190612faa565b60405180910390fd5b805181602001fd5b63150b7a0260e01b7bffffffffffffffffffffffffffffffffffffffffffffffffffffffff1916817bffffffffffffffffffffffffffffffffffffffffffffffffffffffff191614915050611ec7565b600190505b949350505050565b606060006001611ede84611fc0565b01905060008167ffffffffffffffff811115611efd57611efc61266f565b5b6040519080825280601f01601f191660200182016040528015611f2f5781602001600182028036833780820191505090505b509050600082602001820190505b600115611f92578080600190039150507f3031323334353637383961626364656600000000000000000000000000000000600a86061a8153600a8581611f8657611f856134f2565b5b04945060008503611f3d575b819350505050919050565b6000808273ffffffffffffffffffffffffffffffffffffffff163b119050919050565b600080600090507a184f03e93ff9f4daa797ed6e38ed64bf6a1f010000000000000000831061201e577a184f03e93ff9f4daa797ed6e38ed64bf6a1f0100000000000000008381612014576120136134f2565b5b0492506040810190505b6d04ee2d6d415b85acef8100000000831061205b576d04ee2d6d415b85acef81000000008381612051576120506134f2565b5b0492506020810190505b662386f26fc10000831061208a57662386f26fc1000083816120805761207f6134f2565b5b0492506010810190505b6305f5e10083106120b3576305f5e10083816120a9576120a86134f2565b5b0492506008810190505b61271083106120d85761271083816120ce576120cd6134f2565b5b0492506004810190505b606483106120fb57606483816120f1576120f06134f2565b5b0492506002810190505b600a831061210a576001810190505b80915050919050565b604051806060016040528060008152602001600073ffffffffffffffffffffffffffffffffffffffff168152602001600073ffffffffffffffffffffffffffffffffffffffff1681525090565b6000604051905090565b600080fd5b600080fd5b60007fffffffff0000000000000000000000000000000000000000000000000000000082169050919050565b6121a981612174565b81146121b457600080fd5b50565b6000813590506121c6816121a0565b92915050565b6000602082840312156121e2576121e161216a565b5b60006121f0848285016121b7565b91505092915050565b60008115159050919050565b61220e816121f9565b82525050565b60006020820190506122296000830184612205565b92915050565b600081519050919050565b600082825260208201905092915050565b60005b8381101561226957808201518184015260208101905061224e565b60008484015250505050565b6000601f19601f8301169050919050565b60006122918261222f565b61229b818561223a565b93506122ab81856020860161224b565b6122b481612275565b840191505092915050565b600060208201905081810360008301526122d98184612286565b905092915050565b6000819050919050565b6122f4816122e1565b81146122ff57600080fd5b50565b600081359050612311816122eb565b92915050565b60006020828403121561232d5761232c61216a565b5b600061233b84828501612302565b91505092915050565b600073ffffffffffffffffffffffffffffffffffffffff82169050919050565b600061236f82612344565b9050919050565b61237f81612364565b82525050565b600060208201905061239a6000830184612376565b92915050565b6123a981612364565b81146123b457600080fd5b50565b6000813590506123c6816123a0565b92915050565b600080604083850312156123e3576123e261216a565b5b60006123f1858286016123b7565b925050602061240285828601612302565b9150509250929050565b6000806000606084860312156124255761242461216a565b5b6000612433868287016123b7565b9350506020612444868287016123b7565b925050604061245586828701612302565b9150509250925092565b600081519050919050565b600082825260208201905092915050565b6000819050602082019050919050565b612494816122e1565b82525050565b60006124a582612344565b9050919050565b6124b58161249a565b82525050565b6060820160008201516124d1600085018261248b565b5060208201516124e460208501826124ac565b5060408201516124f760408501826124ac565b50505050565b600061250983836124bb565b60608301905092915050565b6000602082019050919050565b600061252d8261245f565b612537818561246a565b93506125428361247b565b8060005b8381101561257357815161255a88826124fd565b975061256583612515565b925050600181019050612546565b5085935050505092915050565b6000602082019050818103600083015261259a8184612522565b905092915050565b6000602082840312156125b8576125b761216a565b5b60006125c6848285016123b7565b91505092915050565b6125d8816122e1565b82525050565b60006020820190506125f360008301846125cf565b92915050565b612602816121f9565b811461260d57600080fd5b50565b60008135905061261f816125f9565b92915050565b6000806040838503121561263c5761263b61216a565b5b600061264a858286016123b7565b925050602061265b85828601612610565b9150509250929050565b600080fd5b600080fd5b7f4e487b7100000000000000000000000000000000000000000000000000000000600052604160045260246000fd5b6126a782612275565b810181811067ffffffffffffffff821117156126c6576126c561266f565b5b80604052505050565b60006126d9612160565b90506126e5828261269e565b919050565b600067ffffffffffffffff8211156127055761270461266f565b5b61270e82612275565b9050602081019050919050565b82818337600083830152505050565b600061273d612738846126ea565b6126cf565b9050828152602081018484840111156127595761275861266a565b5b61276484828561271b565b509392505050565b600082601f83011261278157612780612665565b5b813561279184826020860161272a565b91505092915050565b600080600080608085870312156127b4576127b361216a565b5b60006127c2878288016123b7565b94505060206127d3878288016123b7565b93505060406127e487828801612302565b925050606085013567ffffffffffffffff8111156128055761280461216f565b5b6128118782880161276c565b91505092959194509250565b600080604083850312156128345761283361216a565b5b6000612842858286016123b7565b9250506020612853858286016123b7565b9150509250929050565b600067ffffffffffffffff8211156128785761287761266f565b5b61288182612275565b9050602081019050919050565b60006128a161289c8461285d565b6126cf565b9050828152602081018484840111156128bd576128bc61266a565b5b6128c884828561271b565b509392505050565b600082601f8301126128e5576128e4612665565b5b81356128f584826020860161288e565b91505092915050565b600080604083850312156129155761291461216a565b5b6000612923858286016123b7565b925050602083013567ffffffffffffffff8111156129445761294361216f565b5b612950858286016128d0565b9150509250929050565b7f4e487b7100000000000000000000000000000000000000000000000000000000600052602260045260246000fd5b600060028204905060018216806129a157607f821691505b6020821081036129b4576129b361295a565b5b50919050565b7f4552433732313a20617070726f76616c20746f2063757272656e74206f776e6560008201527f7200000000000000000000000000000000000000000000000000000000000000602082015250565b6000612a1660218361223a565b9150612a21826129ba565b604082019050919050565b60006020820190508181036000830152612a4581612a09565b9050919050565b7f4552433732313a20617070726f76652063616c6c6572206973206e6f7420746f60008201527f6b656e206f776e6572206f7220617070726f76656420666f7220616c6c000000602082015250565b6000612aa8603d8361223a565b9150612ab382612a4c565b604082019050919050565b60006020820190508181036000830152612ad781612a9b565b9050919050565b7f4552433732313a2063616c6c6572206973206e6f7420746f6b656e206f776e6560008201527f72206f7220617070726f76656400000000000000000000000000000000000000602082015250565b6000612b3a602d8361223a565b9150612b4582612ade565b604082019050919050565b60006020820190508181036000830152612b6981612b2d565b9050919050565b7f4e487b7100000000000000000000000000000000000000000000000000000000600052601160045260246000fd5b6000612baa826122e1565b9150612bb5836122e1565b9250828201905080821115612bcd57612bcc612b70565b5b92915050565b6000612bde826122e1565b91507fffffffffffffffffffffffffffffffffffffffffffffffffffffffffffffffff8203612c1057612c0f612b70565b5b600182019050919050565b7f4e487b7100000000000000000000000000000000000000000000000000000000600052603260045260246000fd5b7f4552433732313a20696e76616c696420746f6b656e2049440000000000000000600082015250565b6000612c8060188361223a565b9150612c8b82612c4a565b602082019050919050565b60006020820190508181036000830152612caf81612c73565b9050919050565b7f4552433732313a2061646472657373207a65726f206973206e6f74206120766160008201527f6c6964206f776e65720000000000000000000000000000000000000000000000602082015250565b6000612d1260298361223a565b9150612d1d82612cb6565b604082019050919050565b60006020820190508181036000830152612d4181612d05565b9050919050565b600081905092915050565b6000612d5e8261222f565b612d688185612d48565b9350612d7881856020860161224b565b80840191505092915050565b6000612d908285612d53565b9150612d9c8284612d53565b91508190509392505050565b7f4552433732313a207472616e736665722066726f6d20696e636f72726563742060008201527f6f776e6572000000000000000000000000000000000000000000000000000000602082015250565b6000612e0460258361223a565b9150612e0f82612da8565b604082019050919050565b60006020820190508181036000830152612e3381612df7565b9050919050565b7f4552433732313a207472616e7366657220746f20746865207a65726f2061646460008201527f7265737300000000000000000000000000000000000000000000000000000000602082015250565b6000612e9660248361223a565b9150612ea182612e3a565b604082019050919050565b60006020820190508181036000830152612ec581612e89565b9050919050565b7f4552433732313a20617070726f766520746f2063616c6c657200000000000000600082015250565b6000612f0260198361223a565b9150612f0d82612ecc565b602082019050919050565b60006020820190508181036000830152612f3181612ef5565b9050919050565b7f4552433732313a207472616e7366657220746f206e6f6e20455243373231526560008201527f63656976657220696d706c656d656e7465720000000000000000000000000000602082015250565b6000612f9460328361223a565b9150612f9f82612f38565b604082019050919050565b60006020820190508181036000830152612fc381612f87565b9050919050565b7f4552433732313a206d696e7420746f20746865207a65726f2061646472657373600082015250565b600061300060208361223a565b915061300b82612fca565b602082019050919050565b6000602082019050818103600083015261302f81612ff3565b9050919050565b7f4552433732313a20746f6b656e20616c7265616479206d696e74656400000000600082015250565b600061306c601c8361223a565b915061307782613036565b602082019050919050565b6000602082019050818103600083015261309b8161305f565b9050919050565b7f45524337323155524953746f726167653a2055524920736574206f66206e6f6e60008201527f6578697374656e7420746f6b656e000000000000000000000000000000000000602082015250565b60006130fe602e8361223a565b9150613109826130a2565b604082019050919050565b6000602082019050818103600083015261312d816130f1565b9050919050565b60008190508160005260206000209050919050565b60006020601f8301049050919050565b600082821b905092915050565b6000600883026131967fffffffffffffffffffffffffffffffffffffffffffffffffffffffffffffffff82613159565b6131a08683613159565b95508019841693508086168417925050509392505050565b6000819050919050565b60006131dd6131d86131d3846122e1565b6131b8565b6122e1565b9050919050565b6000819050919050565b6131f7836131c2565b61320b613203826131e4565b848454613166565b825550505050565b600090565b613220613213565b61322b8184846131ee565b505050565b5b8181101561324f57613244600082613218565b600181019050613231565b5050565b601f8211156132945761326581613134565b61326e84613149565b8101602085101561327d578190505b61329161328985613149565b830182613230565b50505b505050565b600082821c905092915050565b60006132b760001984600802613299565b1980831691505092915050565b60006132d083836132a6565b9150826002028217905092915050565b6132e98261222f565b67ffffffffffffffff8111156133025761330161266f565b5b61330c8254612989565b613317828285613253565b600060209050601f83116001811461334a5760008415613338578287015190505b61334285826132c4565b8655506133aa565b601f19841661335886613134565b60005b828110156133805784890151825560018201915060208501945060208101905061335b565b8683101561339d5784890151613399601f8916826132a6565b8355505b6001600288020188555050505b505050505050565b60006040820190506133c76000830185612376565b6133d46020830184612376565b9392505050565b60006133e6826122e1565b91506133f1836122e1565b925082820390508181111561340957613408612b70565b5b92915050565b600081519050919050565b600082825260208201905092915050565b60006134368261340f565b613440818561341a565b935061345081856020860161224b565b61345981612275565b840191505092915050565b60006080820190506134796000830187612376565b6134866020830186612376565b61349360408301856125cf565b81810360608301526134a5818461342b565b905095945050505050565b6000815190506134bf816121a0565b92915050565b6000602082840312156134db576134da61216a565b5b60006134e9848285016134b0565b91505092915050565b7f4e487b7100000000000000000000000000000000000000000000000000000000600052601260045260246000fdfea26469706673582212204f01fca88e26160fcc55b8fd14fa9cb6ce9b9d9515aaa374dea685e2674a478e64736f6c63430008110033",
  "linkReferences": {},
  "deployedLinkReferences": {}
}